:020000040800F2
:10000000008001205D3F0008350D0008370D000815
:10001000390D00083B0D00083D0D000800000000F0
:100020000000000000000000000000003F0D00087C
:10003000410D000800000000430D0008450D0008B8
:10004000AD3F0008AD3F0008AD3F0008AD3F0008E0
:10005000AD3F0008AD3F0008AD3F0008AD3F0008D0
:10006000AD3F0008AD3F0008AD3F0008AD3F0008C0
:10007000AD3F0008AD3F0008AD3F0008AD3F0008B0
:10008000AD3F0008AD3F0008AD3F00080000000094
:10009000000000000000000000000000AD3F00086C
:1000A000AD3F0008AD3F0008AD3F0008AD3F000880
:1000B000AD3F0008AD3F0008AD3F0008AD3F000870
:1000C000AD3F0008AD3F0008AD3F0008AD3F000860
:1000D000AD3F0008AD3F0008AD3F00080000000044
:1000E000AD3F0008AD3F0008AD3F00080000000034
:1000F000000000000000000000000000AD3F00080C
:1001000000000000AD3F0008AD3F0008AD3F000813
:1001100000000000000000000000000000000000DF
:100120004D0D0008AD3F0008AD3F0008AD3F000891
:10013000AD3F0008000000000000000000000000CB
:10014000000000000000000000000000AD3F0008BB
:10015000AD3F0008AD3F0008AD3F0008AD3F0008CF
:10016000AD3F0008AD3F00080000000000000000A7
:10017000000000000000000000000000000000007F
:1001800000000000AD3F000800000000000000007B
:04019000AD3F000877
:1001940010B5054C237833B9044B13B10448AFF3BD
:1001A40000800123237010BD7000002000000000B7
:1001B4009841000808B5034B1BB103490348AFF34A
:1001C400008008BD00000000740000209841000871
:1001D400034613F8012B002AFBD1181A0138704783
:1001E40053B94AB9002908BF00281CBF4FF0FF319A
:1001F4004FF0FF3000F074B9ADF1080C6DE904CE96
:1002040000F006F8DDF804E0DDE9022304B07047ED
:100214002DE9F047089D04468E46002B4DD18A42B5
:10022400944669D9B2FA82F252B101FA02F3C2F1E8
:10023400200120FA01F10CFA02FC41EA030E944079
:100244004FEA1C48210CBEFBF8F61FFA8CF708FB9A
:1002540016E341EA034306FB07F199420AD91CEB72
:10026400030306F1FF3080F01F81994240F21C81A4
:10027400023E63445B1AA4B2B3FBF8F008FB1033EC
:1002840044EA034400FB07F7A7420AD91CEB040421
:1002940000F1FF3380F00A81A74240F207816444F1
:1002A400023840EA0640E41B00261DB1D440002376
:1002B400C5E900433146BDE8F0878B4209D9002DDA
:1002C40000F0EF800026C5E9000130463146BDE864
:1002D400F087B3FA83F6002E4AD18B4202D38242CE
:1002E40000F2F980841A61EB030301209E46002D7D
:1002F400E0D0C5E9004EDDE702B9FFDEB2FA82F2D2
:10030400002A40F09280A1EB0C014FEA1C471FFA2F
:100314008CFE0126200CB1FBF7F307FB131140EA16
:1003240001410EFB03F0884208D91CEB010103F1E3
:10033400FF3802D2884200F2CB804346091AA4B2A5
:10034400B1FBF7F007FB101144EA01440EFB00FE79
:10035400A64508D91CEB040400F1FF3102D2A645DE
:1003640000F2BB800846A4EB0E0440EA03409CE77D
:10037400C6F12007B34022FA07FC4CEA030C20FA2A
:1003840007F401FA06F31C43F9404FEA1C4900FA4A
:1003940006F3B1FBF9F8200C1FFA8CFE09FB1811C7
:1003A40040EA014108FB0EF0884202FA06F20BD93A
:1003B4001CEB010108F1FF3A80F08880884240F28A
:1003C4008580A8F102086144091AA4B2B1FBF9F0CE
:1003D40009FB101144EA014100FB0EFE8E4508D9C9
:1003E4001CEB010100F1FF346CD28E456AD902384E
:1003F400614440EA0840A0FB0294A1EB0E01A14233
:10040400C846A64656D353D05DB1B3EB080261EBA0
:100414000E0101FA07F722FA06F3F1401F43C5E97A
:10042400007100263146BDE8F087C2F12003D840B0
:100434000CFA02FC21FA03F3914001434FEA1C47F2
:100444001FFA8CFEB3FBF7F007FB10360B0C43EAE4
:10045400064300FB0EF69E4204FA02F408D91CEB94
:10046400030300F1FF382FD29E422DD90238634492
:100474009B1B89B2B3FBF7F607FB163341EA034132
:1004840006FB0EF38B4208D91CEB010106F1FF3881
:1004940016D28B4214D9023E6144C91A46EA004678
:1004A40038E72E46284605E70646E3E61846F8E60A
:1004B4004B45A9D2B9EB020864EB0C0E0138A3E753
:1004C4004646EAE7204694E74046D1E7D0467BE734
:1004D400023B614432E7304609E76444023842E7AC
:1004E400704700BFF0B589B00024039404940594C8
:1004F400069407940194244B1A6B42F001021A6388
:100504001A6B02F001020192019A02941A6B42F0F2
:1005140002021A631B6B03F002030293029B1B4E3D
:1005240022461021304601F0E0FD194F224640F2E8
:100534000631384601F0D9FD1023039301250495B3
:100544000594069403A9304601F0E8FC40F2063312
:10055400039304950594069403A9384601F0DEFC40
:100564004FF4404303930494059503A9384601F0DE
:10057400D5FC4FF4C05303930494059503A9304666
:1005840001F0CCFC09B0F0BD00380240000002408C
:100594000004024000B583B000210191094B1A6B9D
:1005A40042F480021A631B6B03F480030193019BE2
:1005B4000A46382001F0C4FF382001F0F9FF03B0E7
:1005C4005DF804FB0038024008B54A291AD00AD85D
:1005D400282912D0292904D1104602F05DF80120FF
:1005E4000AE0002008E04B2905D10221084801F067
:1005F4007CFD012000E0002008BD012002F04CF841
:100604000120F9E70421024801F06FFD0120F3E71E
:100614000004024008B59C46A1F114000C2808D837
:10062400DFE800F025070709171E07070707070774
:100634001100002008BD4FF0FF3361460D4802F061
:10064400D6FB0120F6E704210B4801F04EFD012002
:10065400F0E700221021094801F047FD0120E9E7F5
:1006640001221021054801F040FD0120E2E70120AC
:10067400E0E700BF3409002000040240000002400B
:1006840038B505460C2003F0B5FC0446002303608E
:100694004360836025B1002D05DB0020002114E0B8
:1006A400302303702AE06D420120F7E7144A82FBED
:1006B4000532EB17C3EBA2031A4603EB8303A5EB46
:1006C40043033033635415460131002DEEDC10B181
:1006D4002D2363540131002565542046FFF778FD2E
:1006E4002B4606E0E15CC21A013AA55CE554A1542C
:1006F400013300EBD072B3EB620FF3DB204638BD5D
:100704006766666672B6FEE710B596B0002412946A
:100714001394149415941094119409940A940B94BA
:100724000C940D940E940F942022214601A803F0FA
:1007340069FC2E482E4B0360446084604FF6FF73BF
:10074400C36004614461846100F08EFD00283FD1E0
:100754004FF48053129312A9244800F0E6FE0028B7
:1007640038D1224800F0ACFD002835D10023109385
:10077400119310A91D4801F045F800282ED16023DB
:10078400099300230A930B930C930D930E930F93E9
:10079400042209A9154800F04DFE08BB082209A946
:1007A400124800F047FEE8B9002301930293039333
:1007B400049305934FF400520692089301A90B4841
:1007C40001F05EF880B9094800F0CCFB16B010BD0A
:1007D400FFF798FFFFF796FFFFF794FFFFF792FFED
:1007E400FFF790FFFFF78EFFFFF78CFF8C090020C7
:1007F4000000014000B58FB000230A930B930C93C3
:100804000D9308930993019302930393049305931F
:10081400069307931E484FF0804202604360836052
:100824004FF0FF32C2600361836100F01DFD20BB05
:100834004FF480530A930AA9154800F076FEF0B9E4
:10084400134800F03DFDE0B900230893099308A97B
:100854000F4800F0D7FFB0B9602301930022029241
:100864000392059201A90A4800F0E4FD68B908481A
:1008740000F078FB0FB05DF804FBFFF743FFFFF7D0
:1008840041FFFFF73FFFFFF73DFFFFF73BFF00BFCF
:10089400D409002000B585B000230093019302938E
:1008A40003931348134A0260436083600122026188
:1008B400027680F82030C3620F498162C360C2614E
:1008C40080F83020436101F09FFF68B9082300934A
:1008D40001230193072302936946054802F0BEF8F9
:1008E40020B905B05DF804FBFFF70CFFFFF70AFF22
:1008F4008C080020002001400100000F08B50E48BC
:100904000E4B03604FF48273436000238360C36023
:1009140002220261012242614FF4007282610822C4
:10092400C2610362436283620A23C36202F000FA73
:1009340000B908BDFFF7E6FE34090020003001408D
:1009440008B50A480A4B03604FF4E13343600023BF
:100954008360C36003610C2242618361C36102F05E
:10096400ABFB00B908BDFFF7CDFE00BF640A002051
:100974000010014000B58DB02422002103A803F02B
:1009840041FB0023019302931048114A0260436023
:1009940083604FF0FF32C2600361836103230393DA
:1009A40001230593099303A900F0B6FC50B9002371
:1009B4000193029301A9054800F024FF20B90DB06A
:1009C4005DF804FBFFF79EFEFFF79CFE1C0A002067
:1009D400000C004000B595B03022002108A803F0B7
:1009E40011FB002303930493059306930793019348
:1009F400194A116C41F080511164126C02F080525A
:100A04000192019A029315490A6822F4404242F481
:100A140000420A600A6802F440420292029A0222E8
:100A2400089201220B9210220C920E9308A800F057
:100A340051FF68B90F230393002104910591069196
:100A4400079103A801F094F920B915B05DF804FBEF
:100A5400FFF758FEFFF756FE0038024000700040D2
:100A64002DE9F04F2DED028B83B001F0E9FDFFF786
:100A7400B1FFFFF737FDFFF78DFDFFF745FEFFF7E9
:100A8400B9FEFFF707FFFFF739FFFFF759FFFFF73D
:100A940071FF0021944800F0D7FD944C04212046B6
:100AA40000F0D2FD0821204600F0CEFD904C914B81
:100AB400914A9249204602F0A5FB204603F00CFA25
:100AC4000021204603F00FFA8D4C0021204600F04F
:100AD40033FE0421204600F02FFE4FF48062894942
:100AE400894801F0BDFE002701970097BB46B84630
:100AF40008EE107A4FF0010AB94687E02F469FE0CE
:100B040001F0C4FDA0EB0808B8F1640F03D801F0AC
:100B1400BDFD8046C7E04FF480717C4801F0EBFADC
:100B240089F00103B9F1000F05D199469FED788A48
:100B34004FF0010AEBE7CA4699469FED768AE6E74D
:100B44004FF40041714801F0C9FAF8B14FF4006163
:100B5400714801F0C3FA70B34FF480516E4801F04C
:100B6400BDFA002840F0A38001F090FD019BC31A58
:100B7400642B40F29C8018EE103A632B02D80133A8
:100B840008EE103A01F082FD019090E001F07EFD44
:100B9400A0EB0B0BBBF1640F09D9BAFA8AFA4FEA3E
:100BA4005A1A18EE103A642B01D09FED598A01F0BD
:100BB4006DFD8346CAE701F069FD009BC31A642BEF
:100BC400CAD918EE103A13B1013B08EE103A01F0FD
:100BD4005DFD0090C0E7F8EE486ADFED507A86EEDE
:100BE400A77A07EE902AF8EE677A67EE877AFCEE2A
:100BF400E77AC3ED0F7A00229A633B4A136847F6FB
:100C04008611D962D160DA6A00225A633C4B1B68B0
:100C14005B6A434D85FB0325DB17C3EB6525EE1BA0
:100C2400C6EB0616B60001F031FD3E4BA3FB0023D4
:100C34009B094FF47A7202FB1303012B3FF45EAF5E
:100C44002B4802F0ABFA2A4C3749204602F0DAFD71
:100C54002846FFF715FD034618220021204602F01E
:100C640091FD3846FFF70CFD034630220021204653
:100C740002F088FD3046FFF703FD034648220021B9
:100C8400204602F07FFD204602F095FA0028DAD1D2
:100C94004FF4804100F1804000F5013001F01EFA6C
:100CA40000283FF42DAFB9F1000F7FF449AF0F4A8C
:100CB40013681E49D962D160DA6ABAF1000F8AD08A
:100CC400F8EE486ADFED157A86EEA77A07EE902AE9
:100CD400F8EE677A67EE877AFCEEE77AC3ED0E7A70
:100CE4000022DA6389E700BFD40900208C090020C0
:100CF400A80A0020CD05000819060008F8490008D4
:100D04001C0A00208C0000208C08002000040240F3
:100D14006400000000000000000002400000C8421F
:100D240073072877D34D6210D04100083F420F006B
:100D3400FEE7FEE7FEE7FEE7FEE770477047704711
:100D440008B501F097FC08BD08B5024801F0F8FAAF
:100D540008BD00BFD408002082B0002100910B4BD5
:100D64005A6C42F480425A645A6C02F480420092F3
:100D7400009A01911A6C42F080521A641B6C03F0C1
:100D840080530193019B02B0704700BF00380240BA
:100D940030B589B000230393049305930693079316
:100DA400026803F1804303F590339A4201D009B0FD
:100DB40030BD04460025019503F58C335A6C42F48A
:100DC40080725A645A6C02F480720192019A0295FC
:100DD4001A6B42F002021A631B6B03F002030293C4
:100DE400029B012303930323049303A9104801F0F6
:100DF40095F81048104B036045608560C5604FF45A
:100E0400806303614FF4006343614FF400538361D3
:100E14004FF48073C3610562456201F0F5F918B9B6
:100E2400044BA3639C63C2E7FFF76CFCF8E700BFC5
:100E340000040240D40800201064024000B589B0C8
:100E44000023039304930593069307930268154BB9
:100E54009A4202D009B05DF804FB0021019103F528
:100E640084335A6C42F480525A645A6C02F48052AD
:100E74000192019A02911A6B42F001021A631B6BF0
:100E840003F001030293029BA02303930223049320
:100E9400032306930523079303A9034801F03EF8AF
:100EA400D8E700BF003001400000024082B0036870
:100EB400104A934204D0B3F1804F0ED002B0704771
:100EC400002300930C4B5A6C42F001025A645B6C91
:100ED40003F001030093009BF0E700230193064B0A
:100EE4001A6C42F001021A641B6C03F001030193B3
:100EF400019BE3E7000001400038024000B589B0DF
:100F04000023039304930593069307930268134BFA
:100F14009A4202D009B05DF804FB0021019103F567
:100F24000B331A6C42F008021A641A6C02F00802BD
:100F34000192019A02911A6B42F001021A631B6B2F
:100F440003F001030293029B0323039302230493FC
:100F5400079303A9024800F0E1FFDBE7000C00401F
:100F64000000024000B589B0002303930493059365
:100F74000693079303681C4A934205D0B3F1804F4C
:100F84001AD009B05DF804FB00230193174B1A6BC8
:100F940042F001021A631B6B03F001030193019BEE
:100FA4004FF4C0630393022304930123079303A91B
:100FB4000F4800F0B3FFE4E7002302930B4B1A6BD6
:100FC40042F001021A631B6B03F001030293029BBC
:100FD4004FF400430393022304930123079303A9CB
:100FE400034800F09BFFCCE70000014000380240BA
:100FF4000000024000B589B00023039304930593D5
:1010040006930793026803F1804303F588339A42F9
:1010140002D009B05DF804FB0021019103F594337B
:101024005A6C42F010025A645A6C02F01002019297
:10103400019A02911A6B42F002021A631B6B03F0CD
:1010440002030293029BC02303930223049303230A
:1010540006930723079303A9014800F05FFFD8E72D
:101064000004024070B4036A23F001030362036ABC
:101074004668826922F073020C6844EA020523F090
:1010840002028B6813430D4CA04209D00B4CA042C2
:101094000DD0466085614A684263036270BC704744
:1010A40023F00803CA68134323F00403EEE726F48D
:1010B40040764A6932438E691643EAE700000140EC
:1010C40030B4036A23F480730362036A4568C26917
:1010D40022F073020C68224323F400738C6843EA01
:1010E40004230F4CA04209D00D4CA0420ED0456001
:1010F400C2614A68C263036230BC704723F4006370
:10110400CC6843EA042323F48063EDE725F44055D7
:101114004C6945EA04158C6945EA0415E7E700BF04
:101124000000014030B4036A23F480530362036A6D
:101134004468C26922F4E6420D6842EA052223F4B7
:1011440000538D6843EA0533074DA84206D0446036
:10115400C2614A680264036230BC704724F480446C
:101164004D6944EA8514F2E70000014010B4036AB3
:10117400046A24F001040462846924F0F00C4CEA4B
:10118400021223F00A030B43826103625DF8044BED
:10119400704710B4046A24F0100404628469036A7A
:1011A40024F4704C4CEA023223F0A00343EA011306
:1011B400826103625DF8044B7047836823F0700317
:1011C4000B4343F007038360704770470368254A65
:1011D40090420ED0B0F1804F0BD0A2F57C429042E9
:1011E40007D002F58062904203D002F580629042FB
:1011F40003D123F070034A6813431A4A90421AD069
:10120400B0F1804F17D0A2F57C42904213D002F582
:10121400806290420FD002F5806290420BD002F5BA
:101224009A32904207D002F58062904203D002F5D0
:101234008062904203D123F44073CA68134323F0BD
:1012440080034A69134303608B68C3620B6883623B
:10125400044B984202D00123436170470B69036336
:10126400F9E700BF0000014040B310B5044690F810
:101274003D30F3B1022384F83D30214651F8040B8C
:10128400FFF7A4FF012384F8463084F83E3084F845
:101294003F3084F8403084F8413084F8423084F898
:1012A400433084F8443084F8453084F83D300020DD
:1012B40010BD80F83C30FFF7F9FDDBE701207047F3
:1012C40040B310B5044690F83D30F3B1022384F8DE
:1012D4003D30214651F8040BFFF778FF012384F8D1
:1012E400463084F83E3084F83F3084F8403084F847
:1012F400413084F8423084F8433084F8443084F830
:10130400453084F83D30002010BD80F83C30FFF7B4
:101314005CFFDBE701207047002856D0F8B50D4686
:10132400044690F83D30002B4AD0022384F83D3027
:101334002268936823F4804323F0070393602146D3
:1013440051F8040BFFF742FF21688A688B690E6A23
:101354002868104323F4407C2CF0030CAA68AB6982
:1013640042EA032343EA0C0323F47C4323F0FC0303
:10137400EA69EF6847EA022C4CEA030C2A6A130371
:101384002A6943EA021343EA0C0326F0AA066A68B0
:101394006D6942EA05123243886021688B612368D3
:1013A4001A62012384F8463084F83E3084F83F30D2
:1013B40084F8423084F8433084F83D300020F8BD8E
:1013C40080F83C30FFF79AFDAFE70120704700003A
:1013D40030B4036A23F010030362036A4468826929
:1013E40022F4E6420D6842EA052223F020038D68C8
:1013F40043EA05130E4DA84209D00D4DA8420ED064
:10140400446082614A688263036230BC704723F09F
:101414008003CD6843EA051323F04003EDE724F489
:1014240040644D6944EA85048D6944EA8504E7E72C
:101434000000014038B590F83C30012B66D00446DA
:101444000D46012380F83C300C2A5AD8DFE802F01C
:10145400075959591B595959305959594400006869
:10146400FFF700FE2268936943F008039361226842
:10147400936923F0040393612268936929690B43F8
:10148400936100203EE00068FFF7A2FF22689369A1
:1014940043F4006393612268936923F48063936146
:1014A40022689369296943EA01239361002029E0B2
:1014B4000068FFF705FE2268D36943F00803D3618F
:1014C4002268D36923F00403D3612268D3692969AC
:1014D4000B43D361002015E00068FFF723FE226868
:1014E400D36943F40063D3612268D36923F480632E
:1014F400D3612268D369296943EA0123D3610020B7
:1015040000E00120002384F83C3038BD0220FCE7D1
:1015140010B4846824F47F4C42EA03220A4342EA6A
:101524000C0282605DF8044B704790F83C30012B4C
:1015340078D010B50446012380F83C30022380F8AB
:101544003D300268936823F47F4323F0770393606C
:101554000B68602B4CD029D8402B54D00CD9502B7D
:1015640022D1CA6849680068FFF700FE502120684C
:10157400FFF723FE002005E0202B0DD009D9302BE6
:101584000AD00120012384F83D30002384F83C3044
:1015940010BD0BB1102B05D119462068FFF70DFEC5
:1015A4000020EFE70120EDE70120EBE7B3F5805FD2
:1015B40034D0B3F5005F0CD1CB684A688968006801
:1015C400FFF7A6FF2268936843F4804393600020EA
:1015D400D8E7702B24D1CB684A6889680068FFF784
:1015E40097FF2268936843F0770393600020C9E76C
:1015F400CA6849680068FFF7CCFD60212068FFF7DE
:10160400DCFD0020BEE7CA6849680068FFF7AEFD4C
:1016140040212068FFF7D1FD0020B3E70020B1E7A7
:101624000120AFE70220704701F01F01012303FAF4
:1016340001FC036A23EA0C030362036A02FA01F160
:101644000B4303627047000010B5044608460029A6
:1016540032D194F83E30DBB2013B18BF0123002B9A
:1016640063D1002841D1022384F83E30012201468F
:101674002068FFF7D9FF23682E4A934245D0236898
:101684002C4A934246D0B3F1804F43D0A2F57C421A
:1016940093423FD002F5806293423BD002F58062D0
:1016A400934237D002F59A32934233D01A6842F00B
:1016B40001021A60002037E0042908D008290DD05F
:1016C40094F84130DBB2013B18BF0123C7E794F81B
:1016D4003F30DBB2013B18BF0123C0E794F8403030
:1016E400DBB2013B18BF0123B9E7042805D0082861
:1016F40007D0022384F84130B8E7022384F83F304E
:10170400B4E7022384F84030B0E75A6C42F4004254
:101714005A64B4E79A6802F00702062A07D01A68E6
:1017240042F001021A60002010BD0120FCE70020F5
:10173400FAE700BF0000014038B5044690F83E00C7
:10174400C0B294F83F3094F84220D2B294F843C027
:101754000D46B1B9012849D1012A48D1022384F8A0
:101764003E3084F842307DB3042D39D0012200216B
:101774002068FFF759FF012204212068FFF754FF76
:1017840027E0DBB25FFA8CFC042912D0012833D1A4
:10179400012B2CD1012A31D1BCF1010F30D102230C
:1017A40084F83E3084F83F3084F8423084F8433083
:1017B400D9E7012B1CD1BCF1010F1BD1022384F802
:1017C4003F3084F84330CEE7012200212068FFF740
:1017D4002BFF2268136843F001031360002006E026
:1017E400012204212068FFF71FFFF2E7012038BD22
:1017F4000120FCE71846FAE70120F8E71846F6E767
:101804001046F4E790F83C30012B35D010B4012396
:1018140080F83C30022380F83D3003685A689C68A5
:1018240022F0700C0A6842EA0C025A600368134AF8
:10183400934212D0B3F1804F0FD0A2F57C42934271
:101844000BD002F58062934207D002F58062934286
:1018540003D002F59A32934204D124F080044A68FA
:1018640014439C60012380F83D30002380F83C3011
:1018740018465DF8044B7047022070470000014091
:1018840090F83C30012B22D0012380F83C30CB6807
:1018940023F440738A68134323F480634A68134330
:1018A40023F400630A68134323F480530A6913433F
:1018B40023F400534A69134323F48043CA6913434E
:1018C40002685364002380F83C30184670470220B5
:1018D40070470000002800F0E08170B582B0044633
:1018E400036813F0010F3BD09F4B9B6803F00C037C
:1018F400042B2CD09C4B9B6803F00C03082B21D0A9
:101904006368B3F5803F4FD0B3F5A02F52D0964B08
:101914001A6822F480321A601A6822F480221A604B
:101924006368002B50D000F0B1FE05468E4B1B6857
:1019340013F4003F14D100F0A9FE401B6428F5D92C
:101944000320B1E1884B5B6813F4800FD8D0864B39
:101954001B6813F4003F03D06368002B00F09F81E1
:10196400236813F0020F54D07F4B9B6813F00C0FC5
:101974003ED07D4B9B6803F00C03082B33D0E36807
:10198400002B68D0794B01221A6000F07FFE0546D7
:10199400754B1B6813F0020F54D100F077FE401B07
:1019A4000228F5D903207FE16F4A136843F480339A
:1019B4001360B5E76C4B1A6842F480221A601A6807
:1019C40042F480321A60ABE700F060FE0546664BD5
:1019D4001B6813F4003FC3D000F058FE401B64287A
:1019E400F5D9032060E1604B5B6813F4800FC6D126
:1019F4005D4B1B6813F0020F03D0E368012B40F02A
:101A04005081594A136823F0F803216943EAC1035A
:101A14001360236813F0080F42D063696BB3534B10
:101A24000122C3F8802E00F031FE05464E4B5B6F59
:101A340013F0020F34D100F029FE401B0228F5D91F
:101A4400032031E1484A136823F0F803216943EA8B
:101A5400C1031360DDE7454B00221A6000F016FE57
:101A64000546414B1B6813F0020FD2D000F00EFE66
:101A7400401B0228F5D9032016E13C4B0022C3F891
:101A8400802E00F003FE0546374B5B6F13F0020F08
:101A940006D000F0FBFD401B0228F5D9032003E12A
:101AA400236813F0040F77D02F4B1B6C13F0805F67
:101AB40033D1002301932C4B1A6C42F080521A64E8
:101AC4001B6C03F080530193019B0125284B1B6879
:101AD40013F4807F23D0A368012B34D0052B38D096
:101AE400214B1A6F22F001021A671A6F22F00402C6
:101AF4001A67A368002B3DD000F0C8FD06461A4BB8
:101B04001B6F13F0020F46D100F0C0FD801B41F2A1
:101B140088339842F3D90320C6E00025D6E7144A57
:101B2400136843F48073136000F0B0FD0646104B55
:101B34001B6813F4807FCED100F0A8FD801B02281F
:101B4400F5D90320B0E0084A136F43F0010313678B
:101B5400CFE7054B1A6F42F004021A671A6F42F07E
:101B640001021A67C5E700BF00380240000047427F
:101B74000070004000F08AFD0646524B1B6F13F0C4
:101B8400020F08D000F082FD801B41F28833984296
:101B9400F3D9032088E0EDB9A369002B00F083801A
:101BA400484A926802F00C02082A51D0022B17D03E
:101BB400454B00221A6600F069FD0446414B1B6840
:101BC40013F0007F42D000F061FD001B0228F5D91C
:101BD400032069E03B4A136C23F080531364DBE772
:101BE400394B00221A6600F051FD0546354B1B683F
:101BF40013F0007F06D000F049FD401B0228F5D900
:101C0400032051E0E369226A1343626A43EA8213C0
:101C1400A26A5208013A43EA0243E26A43EA0263CF
:101C2400284A5360284B01221A6600F02FFD04460F
:101C3400244B1B6813F0007F06D100F027FD001B26
:101C44000228F5D903202FE000202DE000202BE00E
:101C5400012B2BD01B4B5B6803F48001E26991429A
:101C640026D103F03F02216A8A4223D1616A47F6F2
:101C7400C0721A40B2EB811F1ED103F44031A26A34
:101C84005208013AB1EB024F18D103F07063E26AD3
:101C9400B3EB026F14D1002006E00120704701204D
:101CA40002E0012000E0002002B070BD0120FBE74B
:101CB4000120F9E70120F7E70120F5E70120F3E728
:101CC4000120F1E7003802400000474208B5254BE7
:101CD4009B6803F00C03042B3FD0082B3FD1214B0E
:101CE4005A6802F03F025B6813F4800F12D01D4B58
:101CF4005968C1F388111C480023A1FB0001FEF7B9
:101D04006FFA184B5B68C3F3014301335B00B0FB0C
:101D1400F3F025E0134B5968C1F3881C4FEA4C11CA
:101D2400B1EB0C006EEB0E0E4FEA8E1343EA906398
:101D34008101091A63EB0E03DB0043EA5173C90006
:101D440011EB0C0C43F10003990200234FEA8C20A1
:101D540041EA9C51FEF744FAD3E7034800E0034804
:101D640008BD00BF0038024040787D010024F40023
:101D7400002800F09B8070B50D4604464F4B1B684D
:101D840003F007038B4208D2CBB24C4A137013689A
:101D940003F007038B4240F08B80236813F0020F9B
:101DA40017D013F0040F04D0454A936843F4E0536A
:101DB4009360236813F0080F04D0414A936843F4F6
:101DC400604393603E4A936823F0F003A1680B4399
:101DD4009360236813F0010F32D06368012B21D084
:101DE4009A1E012A25D9364A126812F0020F61D0D0
:101DF40033498A6822F0030213438B6000F046FCE7
:101E040006462F4B9B6803F00C036268B3EB820F0A
:101E140016D000F03BFC801B41F288339842F0D985
:101E2400032042E0264A126812F4003FE0D1012068
:101E34003BE0234A126812F0007FD9D1012034E03C
:101E44001E4B1B6803F00703AB4207D9EAB21B4BD6
:101E54001A701B6803F00703AB422DD1236813F0FB
:101E6400040F06D0164A936823F4E053E1680B4349
:101E74009360236813F0080F07D0114A936823F482
:101E84006043216943EAC1039360FFF71FFF0C4BD2
:101E94009B68C3F303130B4AD35CD8400A4B186006
:101EA4000A4B186800F0A6FB002070BD01207047A3
:101EB4000120FAE70120F8E70120F6E7003C0240A0
:101EC40000380240B8410008080000200400002047
:101ED400014B1868704700BF0800002008B5FFF7E1
:101EE400F7FF044B9B68C3F38223034AD35CD840B7
:101EF40008BD00BF00380240C841000808B5FFF71C
:101F0400E7FF044B9B68C3F34233034AD35CD840D6
:101F140008BD00BF00380240C841000800230F2B51
:101F240000F2D28070B582B060E085685E00032460
:101F3400B44025EA0405CC68B4402C438460456869
:101F440025EA02054C68C4F300129A402A43426011
:101F54005AE0DC08083450F8246003F007029500C6
:101F64000F22AA4026EA020E0A69AA4042EA0E0299
:101F740040F824205CE0042200E0002202FA0EF281
:101F84002A430234514D45F82420514A94686FEA9B
:101F94000C0224EA0C054E6816F4801F01D04CEAAA
:101FA40004054B4CA560E46802EA04054E6816F487
:101FB400001F01D04CEA0405454CE560646802EA60
:101FC40004054E6816F4003F01D04CEA0405404C69
:101FD4006560246822404D6815F4803F01D04CEAC6
:101FE40004023B4C226001330F2B6BD801229A4030
:101FF4000C6804EA020C32EA0404F4D14C6804F0DC
:102004000304013C012C90D94A6802F00302032A1C
:1020140009D0C4685D000322AA4024EA02048A6845
:10202400AA402243C2604A6802F00302022A90D006
:1020340004684FEA430E032202FA0EF224EA020471
:102044004A6802F0030202FA0EF2224302604A686E
:1020540012F4403FC7D0002201921E4A546C44F44B
:1020640080445464526C02F480420192019A9C08A8
:10207400A51C164A52F8255003F003024FEA820EBB
:102084000F2202FA0EF225EA0205134A90423FF4A7
:1020940074AF02F5806290420ED002F580629042E5
:1020A4000CD002F5806290420AD002F58062904220
:1020B4003FF461AF072261E701225FE702225DE797
:1020C40003225BE702B070BD704700BF00380140D7
:1020D400003C0140003802400000024003691942FC
:1020E40001D001207047002070470AB18161704718
:1020F400090481617047436901EA030221EA03018B
:1021040041EA02418161704730B405682C6824F4C7
:1021140080242C60046863608368402B05D00368C6
:1021240099600368DA6030BC704703689A6003689A
:10213400D960F8E710B40368D9B210390C4AA2FB8D
:10214400014212090B4CA25CC2655F2909D923F430
:102154007F7323F0030304338365806D5DF8044BC0
:10216400704723F47F7323F003038365F5E700BF0F
:10217400ABAAAAAAB0410008836A826992B9012B6A
:102184000AD0022B02D00BB100207047C36A13F0AF
:10219400807F28D100207047C36AB3F1C07F24D068
:1021A40000207047B2F5005F09D0022B25D9032B1C
:1021B40025D1C36A13F0807F23D100207047032BFD
:1021C40003D8DFE803F01404140A00207047C36A3C
:1021D40013F0807F0DD100207047C36AB3F1C07F34
:1021E40009D000207047012070470120704701206A
:1021F400704701207047012070470120704700207C
:10220400704701207047000070B5044600F03EFAA4
:10221400002C5BD00546022384F83530002384F873
:1022240034302268136823F00103136023681A68AA
:1022340012F0010F0AD000F029FA431B052BF5D93F
:1022440020236365032084F8350070BD1A68204894
:1022540010406168A2680A43E1680A4321690A439D
:1022640061690A43A1690A43E1690A43216A0A438D
:102274000243616A04291ED01A602668756925F034
:102284000705636A1D43042B07D1A36A1D43E36A50
:102294001BB12046FFF770FF90B975612046FFF728
:1022A40049FFE26D3F239340836000206065012372
:1022B40084F83530C9E7E16A206B01430A43DBE760
:1022C40040236365012084F83500BEE70120BCE7A4
:1022D4003F8010F038B50446856D90F8340001282D
:1022E4002BD0012084F8340094F83500C0B20128C2
:1022F40004D0002384F83430022038BD022084F84E
:102304003500002060652046FFF7FEFEE26D3F23A6
:102314009340AB602268136843F016031360236C88
:1023240023B12268136843F008031360226813681A
:1023340043F0010313600020DFE70220DDE7000023
:10234400F0B583B0044600230193724B1D68724BB1
:10235400A3FB0535AD0A876D3E68C26D0823934023
:10236400334210D003681A6812F0040F0BD01A68B5
:1023740022F004021A60C26D08239340BB60436DCF
:1023840043F001034365E26D01239340334209D0D6
:102394002268526912F0800F04D0BB60636D43F071
:1023A40002036365E26D04239340334209D022683B
:1023B400126812F0020F04D0BB60636D43F0040393
:1023C4006365E26D10239340334224D0226812687F
:1023D40012F0080F1FD0BB6023681A6812F4802F14
:1023E4000DD01B6813F4002F04D1236C9BB120463D
:1023F400984710E0A36C73B1204698470BE01A6825
:1024040012F4807F03D11A6822F008021A60236C48
:102414000BB120469847E26D20239340334255D0B8
:102424002268126812F0100F50D0BB6094F8353057
:10243400DBB2052B0ED023681A6812F4802F33D038
:102444001B6813F4002F2AD1636C002B3ED0204666
:1024540098473BE02268136823F016031360226850
:10246400536923F080035361236CA3B1226813687A
:1024740023F008031360E26D3F239340BB60012304
:1024840084F83530002384F83430236D002B3FD09A
:10249400204698473CE0A36C002BE7D1EBE7E36BC5
:1024A400A3B12046984711E01A6812F4807F09D13D
:1024B4001A6822F010021A60012384F835300023D0
:1024C40084F83430E36B0BB120469847636DFBB15D
:1024D400636D13F0010F17D0052384F8353022689B
:1024E400136823F001031360019B01330193AB4292
:1024F40004D823681B6813F0010FF5D1012384F875
:102504003530002384F83430E36C0BB1204698470F
:1025140003B0F0BD08000020B5814E1B074AD36804
:1025240023F4E0631B041B0C000200F4E06003438B
:1025340043F0BF6343F40033D360704700ED00E021
:1025440000B5194BDB68C3F30223C3F1070CBCF1DC
:10255400040F28BF4FF0040C03F1040EBEF1060F64
:1025640018D9033B4FF0FF3E0EFA0CFC21EA0C0194
:1025740099400EFA03F322EA0303194300280BDB04
:102584000901C9B200F1604000F5614080F8001310
:102594005DF804FB0023E5E700F00F000901C9B270
:1025A400024B1954F4E700BF00ED00E014ED00E025
:1025B400002807DB00F01F02400901239340024A70
:1025C40042F82030704700BF00E100E00138B0F16C
:1025D400807F0BD24FF0E0235861054AF02182F846
:1025E40023100020986107221A6170470120704768
:1025F40000ED00E010B504460E4B18784FF47A73E2
:10260400B3FBF0F30C4A1068B0FBF3F0FFF7DEFF06
:1026140068B90F2C01D901200AE0002221464FF0AD
:10262400FF30FFF78DFF054B1C60002000E0012008
:1026340010BD00BF0000002008000020040000209E
:1026440008B50B4B1A6842F400721A601A6842F417
:1026540080621A601A6842F480721A600320FFF7DD
:102664005DFF0F20FFF7C6FFFEF776FB002008BDD5
:10267400003C0240034A1168034B1B780B4413606F
:10268400704700BF3C0B002000000020014B18687D
:10269400704700BF3C0B002038B50446FFF7F6FF37
:1026A4000546B4F1FF3F02D0044B1B781C44FFF7EE
:1026B400EDFF401BA042FAD338BD00BF000000204C
:1026C400034AD2F8883043F47003C2F88830704764
:1026D40000ED00E04A4B5A6822F440325A605A68CE
:1026E40041680A435A600268536823F48073536054
:1026F40002685368016943EA01235360026853681E
:1027040023F0407353600268536881680B4353603D
:102714000268936823F40063936002689368C16855
:102724000B439360826A374B9A4257D0026893688E
:1027340023F07063936002689368816A0B4393602B
:102744000268936823F04053936002689368C16AF7
:102754000B4393600268936823F00203936002685A
:102764009368017E43EA4103936090F82030002B84
:102774003FD00268536843F40063536002685368AF
:1027840023F46043536001684B68426A013A43EAA8
:1027940042334B600268D36A23F47003D362016846
:1027A400CB6AC269013A43EA0253CB620268936876
:1027B40023F4007393600268936890F8301043EA3E
:1027C400412393600268936823F4806393600268F2
:1027D4009368416943EA8123936070470268936870
:1027E40023F0706393600268936823F0405393600E
:1027F400B0E70268536823F400635360CAE700BF7C
:10280400002301400100000F38B310B50446036CE7
:1028140043B1236C13F0100F0BD00120002384F874
:102824003C3010BDFEF7B4FA0023636484F83C30F6
:10283400EFE7236C23F4885323F0020343F00203ED
:1028440023642046FFF746FF00206064236C23F0D6
:10285400030343F001032364E0E701207047000011
:1028640010B582B013460022019290F83C20012A50
:1028740000F094800446012280F83C2002689068AD
:1028840010F0010F13D1906840F001009060464AA7
:102894001068464AA2FB0020800C00EB4000019027
:1028A40002E001980138019001980028F9D12268CA
:1028B400906810F4807F03D0906820F4807090605A
:1028C4002268906810F0010F5DD0206C20F4E06065
:1028D40020F0010040F480702064526812F4806F8C
:1028E40005D0226C22F4405242F480522264226CBD
:1028F40012F4805F34D0626C22F00602626400221B
:1029040084F83C20A26B2A48D063A26B2948106447
:10291400A26B2948D06422686FF0220010602068FE
:10292400426842F0806242602068826842F48072A9
:10293400826020680A4600F14C01A06BFFF7CAFCD4
:102944001E4B5B6813F01F0F0DD123689A6812F0B9
:10295400405F25D19A6842F080429A6000201BE0D3
:1029640000226264CBE72368154A934201D0002019
:1029740012E09A6812F0405F14D19A6842F08042E3
:102984009A60002008E0236C43F010032364636C16
:1029940043F001036364002002B010BD0220FBE792
:1029A4000020F9E70020F7E70800002083DE1B433E
:1029B400EF290008CD290008D92900080023014087
:1029C400002001407047704708B5806BFFF7FBFF9C
:1029D40008BD704708B5806B40230364436C43F023
:1029E40004034364FFF7F5FF08BD08B50346806B95
:1029F400026C12F0500F25D1036C43F4007303648E
:102A040003689A6812F0405F19D1027EBAB9DA6A93
:102A140012F4700F03D09A6812F4806F0FD15A68C1
:102A240022F020025A60036C23F480730364036C65
:102A340013F4805F03D1036C43F001030364FFF7D5
:102A4400C1FF08BD026C12F0100F04D1826BD26C6E
:102A540018469047F5E7FFF7BCFFF2E730B482B0C1
:102A64000023019390F83C30012B00F0BB8001233C
:102A740080F83C300B68092B41D90468E2689BB2AA
:102A840003EB43031E3B4FF0070C0CFA03F322EA5B
:102A94000303E3600468E2680B8803EB43031E3B13
:102AA4008D6805FA03F31343E3604B68062B3DD8A6
:102AB4000468626B03EB8303053B4FF01F0C0CFAB5
:102AC40003F322EA030363630468626B4B6803EB5A
:102AD4008303053BB1F800C00CFA03F313436363AB
:102AE4000268414B9A4251D002683F4B9A4256D0F9
:102AF400002380F83C30184602B030BC70470468AC
:102B040022699BB203EB43034FF0070C0CFA03F367
:102B140022EA03032361046822690B8803EB43035D
:102B24008D6805FA03F313432361BEE70C2B16D813
:102B340005682A6B03EB8303233B1F2404FA03F386
:102B440022EA03032B6305682A6B4B6803EB8303B8
:102B5400233B0C8804FA03F313432B63C0E7056893
:102B6400EA6A03EB8303413B1F2404FA03F322EADA
:102B74000303EB620568EA6A4B6803EB8303413B9A
:102B84000C8804FA03F31343EB62A9E70B68122BD6
:102B9400AAD1164A536843F480035360A4E70B6830
:102BA400103B012BA4D8114A536843F4000353602B
:102BB4000B68102B9CD10E4B1B6802F1467202F578
:102BC4002E3202F28332A2FB03239B0C03EB83031A
:102BD4005B00019302E0019B013B0193019B002BED
:102BE400F9D185E7022087E7002001400023014056
:102BF400080000202DE9F04782B0054688461746B4
:102C04001E46FFF743FD0A9B1B1A03EB0609FFF759
:102C14003DFD82462B4B1B68C3F3CB3309FB03F307
:102C240001932B689C6838EA04030CBF4FF0010C35
:102C34004FF0000CBC4540D0B6F1FF3FF1D0FFF798
:102C440025FDA0EB0A0048450AD2B9F1000F07D0D0
:102C5400019A02B14A46019B013B01939146E0E788
:102C64002A68536823F0E00353606B68B3F5827FEE
:102C74000BD0AB6AB3F5005F14D0012385F8513053
:102C8400002385F85030032018E0AB68B3F5004FFB
:102C940002D0B3F5806FECD12A68136823F04003A7
:102CA4001360E6E72A68136823F4005313602A6864
:102CB400136843F400531360DFE7002002B0BDE85B
:102CC400F08700BF0800002010B584B00446164BFE
:102CD4001868164BA3FB0030400D4FF47A7303FBC6
:102CE40000F003906368B3F5827F0BD0039BBBB104
:102CF400039B013B039323689B6813F0800FF5D17A
:102D040000200EE000920B46002280212046FFF7AF
:102D140071FF30B1636D43F020036365032000E06D
:102D2400002004B010BD00BF08000020819F5E1683
:102D340000285AD010B50446436A33B94368B3F542
:102D4400827F05D00023C36102E000230361436155
:102D54000023A36294F85130002B40D0022384F85E
:102D640051302268136823F040031360636803F44E
:102D74008273A26802F404421343E26802F400621C
:102D84001343226902F002021343626902F0010252
:102D94001343A26902F400721343E26902F0380299
:102DA4001343226A02F080021343A26A02F400521F
:102DB400216813430B60638B03F00403626A02F01F
:102DC4001002216813434B602268D36923F4006323
:102DD400D36100206065012384F8513010BD84F86C
:102DE40050302046FEF72AF8B8E7012070472DE955
:102DF400F04383B01D4690F85030012B00F0D18091
:102E0400044688469146012380F85030FFF73EFC83
:102E1400074694F85160F6B2012E40F0AF80B8F145
:102E2400000F00F0AC80B9F1000F00F0A88003237C
:102E340084F8513000236365C4F83080A4F83490DA
:102E4400A4F83690A363A387E38763642364A36829
:102E5400B3F5004F1ED023681A6812F0400F03D157
:102E64001A6842F040021A60E368B3F5006F1CD0A0
:102E7400636813B1B9F1010F52D1226B2368127840
:102E84001A73236B01332363E38E9BB2013B9BB222
:102E9400E38645E02268136823F040031360226848
:102EA400136843F480431360D5E7636813B1B9F141
:102EB400010F16D1226B23681288DA60236B023368
:102EC4002363E38E9BB2013B9BB2E38609E0FFF7E9
:102ED400DDFBC01BA84202D3B5F1FF3F59D1002D41
:102EE40059D0E38E9BB2002B33D023689A6812F03A
:102EF400020FECD0226B1288DA60236B0233236357
:102F0400E38E9BB2013B9BB2E386EAE7FFF7BEFB8D
:102F1400C01BA84202D3B5F1FF3F3ED1002D3ED0E5
:102F2400E38E9BB2ABB123689A6812F0020FEDD026
:102F3400226B12781A73236B01332363B4F836C0FF
:102F44001FFA8CFC0CF1FF3C1FFA8CFCA4F836C071
:102F5400E6E73A4629462046FFF7B6FE08B12023A5
:102F64006365A36833B901932368DA6801929B68A7
:102F74000193019B636D13B9002600E0022601232F
:102F840084F85130002384F85030304603B0BDE853
:102F9400F0830326F3E70326F1E70326EFE703268E
:102FA400EDE70226F1E7000038B50446026813692C
:102FB40023F44053C1680B431361836802691343CC
:102FC40042691343C2691A430168CB6823F4164368
:102FD40023F00C031343CB600268536923F440735A
:102FE40081690B4353610368314A934206D002F569
:102FF4008062934202D0FEF771FF01E0FEF77EFF8C
:10300400E369B3F5004F29D00021031849411B1887
:1030140041F10001C90041EA5371DB0018186368EB
:103024004FEA83024FEA937341F10001FDF7D8F8A8
:10303400204DA5FB00325109642303FB11031B013E
:103044003233A5FB03235B0903F0F00202EB011208
:1030540003F00F03216813448B6038BD002302186A
:1030640043EB0301121841F10001C90041EA527116
:10307400D200101841F10001626892185B41FDF71B
:10308400AFF80C4DA5FB00325109642303FB110377
:10309400DB003233A5FB03235B095A0002F4F87208
:1030A40002EB011203F00703216813448B60D4E799
:1030B400001001401F85EB5158B310B5044690F839
:1030C4003D300BB3242384F83D302268D36823F4C5
:1030D4000053D3602046FFF767FF2268136923F487
:1030E400904313612268536923F02A0353612268D1
:1030F400D36843F40053D36000202064202384F871
:103104003D3084F83E3010BD80F83C30FDF772FF4E
:10311400D8E70120704710B582B003681B7C446B6C
:1031240003FB01F1C90089B221440091002100F0A0
:10313400BBFE02B010BD2DE9F041064690F8387090
:1031440090F83950036893F8118000242A462146E8
:103154003046FFF7E0FF0134E4B20135EDB2A74297
:1031640001D9A845F2D8BDE8F08108B503681B7CF5
:1031740090F8382003FB02F2D2000021406B00F0EB
:1031840041FF08BD10B5044680F83910036B1B6875
:103194009847236B5B682046984710BD10B50446DA
:1031A40090F8933023B900212046FFF7EBFF10BDC0
:1031B400FFF7DBFFF7E738B50446FFF7BCFF94F8E9
:1031C400393094F838501D44EDB223685B7CAB422F
:1031D40008D994F8933053B929462046FFF7D2FF13
:1031E400012038BD204600F085FE0020F9E7204686
:1031F400FFF7BBFFF0E700000223037000487047AD
:10320400400B002030B585B004460D4600931346AC
:10321400084A094900F090FE0DF10F00FFF7ECFF9A
:1032240001460095054B9DF80F20204600F09FFCB9
:1032340005B030BDC13C0008053E0008AB390008AC
:10324400405C70474218435C507800EB032080B226
:1032540070470020704738B504460D4600212846C3
:10326400FFF7EEFF207001212846FFF7E9FF6070A9
:1032740002212846FFF7E4FFA07003212846FFF748
:10328400DFFFE07004212846FFF7DAFF20710521F3
:103294002846FFF7D5FF607106212846FFF7D0FFC7
:1032A400A07107212846FFF7CBFFE07108212846CB
:1032B400FFF7C6FF207209212846FFF7C1FF60729D
:1032C4000A212846FFF7BCFFA0720B212846FFF70E
:1032D400B7FFE0720C212846FFF7B2FF20730D21DF
:1032E4002846FFF7ADFF60730E212846FFF7A8FFBD
:1032F400A0730F212846FFF7A3FFE073102128468F
:10330400FFF79EFF207411212846FFF79BFF608280
:1033140013212846FFF796FFA08215212846FFF7C0
:1033240091FFE08238BD10B590F80CC00468227893
:1033340042FA0CFE5FFA8EF20CEB0103DBB2072BB0
:103344000DD9CCF1080C5FFA8CFC621C0260627827
:1033540002FA0CF242EA0E02D2B2083BDBB24FF0A0
:10336400FF3C0CFA01F1037322EA010010BD38B5E9
:10337400044600F160050166002380F86C3090F883
:1033840078102846FFF7CFFF84F86A0094F8791084
:103394002846FFF7C8FF84F86B0094F8923084F84D
:1033A4006E30B3FA83F35B0984F86F3038BD10B51F
:1033B4000C46FFF7B8FF013CE4B2012303FA04F41E
:1033C400001B40B210BD012B08D0022B09D013B151
:1033D400401A80B27047104480B27047084480B2EB
:1033E4007047801A80B27047012B08D0022B09D095
:1033F40013B1104480B27047084480B27047801AF9
:1034040080B27047401A80B270472DE9F04F89B0FE
:1034140006460C46079290F968305FFA83FB90F9F0
:103424006930DBB2039319E0059420E096F86E301E
:1034340086F89230CDF80080BDF8143006993046F5
:1034440000F020FABC423DD3ABEB05052C44E4B2BA
:10345400039B0133DBB203934FF0000B96F96A50E0
:10346400EDB2A5EB0B07FFB2BC42DDD30597B6F86E
:1034740066A04FFA8BF19DF90C9096F87080434644
:103484004A460491B6F86400FFF7AEFF069043463F
:103494004A4604995046FFF796FF0246079B002BC5
:1034A400C4D196F86D30002BCCD196F86F3086F8E5
:1034B4009230CDF80080BDF814300699304600F003
:1034C400E1F9BFE75C4486F8684086F8699009B082
:1034D400BDE8F08F2DE9F04F85B0044600F160059A
:1034E400FFF745FF94F96B7094F87A102846FFF7BC
:1034F4005EFF804694F87B102846FFF758FF064687
:1035040094F87C102846FFF752FF039094F96A90D0
:10351400B9F1000F54DD3E44F6B2764276B294F827
:1035240070B05B4632464146B4F86400FFF75CFF76
:103534008246A4F864005B4632464146B4F866000D
:10354400FFF741FF0246A4F86600BBF1030F66D8FB
:10355400DFE80BF0023A47591AFA89F39BB2384470
:1035640080B200905146204600F007FA40B3002391
:1035740084F8683084F8693094F876102846FFF7A8
:10358400D2FE804694F877102846FFF7CCFE064614
:10359400002241462046FFF738FF012231462046EB
:1035A400FFF733FF01212846FFF7BDFE0028EFD1C6
:1035B40094F96930BB42DFDB94F86E3084F89230C2
:1035C400039805B0BDE8F08FAAEB070189B2013179
:1035D4000AF101039BB210FA89F080B21FFA81FA52
:1035E400BFE71FFA89F1AAEB010189B201310AF19F
:1035F40001039BB2C61BB6B20136013290B2B2B21D
:103604001FFA81FAADE70AEB07039BB21FFA89F1AF
:10361400411A89B20131013290B28AB2A1E753460C
:103624009FE770B50E46846D1734FF2913D86029BF
:1036340003D9B0F888301C4406E0402904D9B0F816
:1036440086301C4400E01C44637803B32278B24201
:10365400F9D1A01C1CE0B0F88A00044425460021DE
:103664002846FFF7EFFD044402212846FFF7EAFD50
:1036740004358642F3D801E0A3781C4422786378A9
:1036840053EA022305D09E42F6D1E01C00E000205C
:1036940070BD0020FCE710B50446A0F86410A0F843
:1036A40066201946FFF7BDFF28B101462046FFF703
:1036B40011FF80B210BD0020FCE7F8B504460D46AA
:1036C40016461F4690F87030032B07D8DFE803F046
:1036D400020D1217C36D98470644B6B23B463246F4
:1036E40029462046FFF7D7FFF8BDC36D98472D1A2A
:1036F400ADB2F3E7C36D9847361AB6B2EEE7C36DC1
:1037040098470544ADB2E9E72DE9F04104460F4678
:1037140016461D4600F058FA4FF0000804E007442E
:10372400BFB240441FFA80F863682978204698475E
:103734004FF6FF72904222D001354FF6FE7290424E
:10374400F2D00346324639462046FFF7B6FF94F8D6
:103754007030032BE5D801A252F823F02337000878
:1037640071370008773700087D3700080644B6B281
:10377400D7E73F1ABFB2D4E7361AB6B2D1E740460C
:10378400BDE8F08110B5024C4460FFF7BDFF10BDE9
:10379400B73B0008836D6BB390F9812080F88E20CD
:1037A40090F9823080F88F3090F88D1011B3012990
:1037B40013D000B590F97EC090F980100CEB010E87
:1037C400724504DACAB252FA8CFC80F88EC08B427D
:1037D40001DD80F88F105DF804FB90F983108A42B4
:1037E40001DA80F88E1090F98420934202DD80F88B
:1037F4008F20704770470000014BC365704700BFBE
:1038040057320008836D8B4209D010B50446816598
:103814007430FFF720FD2046FFF7BCFF10BD704752
:1038240000B5B0F800E0B1F800C0F4441FFA8CFC15
:10383400E64505D99E4513D203F1FF3C1FFA8CFCE3
:103844009E450FD294450FD9964500D372469C45A8
:1038540000D8634602809B1A0B8001205DF804FBAC
:103864009646EDE70020F9E70020F7E730B583B08E
:10387400C48F121BC46A9DF81850009592B2A047D9
:1038840003B030BD70B584B004469DF82000ADF897
:103894000E10ADF80C20ADF80A3094F88C305BB300
:1038A400BDF80A3043B3012B03D9022826D00328DC
:1038B4002DD010F0010534D1B4F84C20BDF80C30F3
:1038C4009A4219D8B4F84E20934215D2B4F84A302B
:1038D400B4F848200DF10A010DF10E00FFF7A0FF26
:1038E40050B1236B9E680095BDF80A30BDF80C20DA
:1038F400BDF80E102046B04704B070BD8AB2D31A8A
:103904009BB2ADF80E300133ADF80E30D1E7BDF8FF
:103914000C20D31A9BB2ADF80C300133ADF80C3047
:10392400C7E7B4F84820BDF80E309A42E4D8B4F89A
:103934004A209342E0D2B4F84E30B4F84C200DF152
:103944000A0103A8FFF76CFF0028CAD1D4E78A4212
:1039540005D2834209D89A4209D90120704783428B
:1039640007D99A4207D901207047012070470020E7
:103974007047002070470020704770B504460D461C
:103984001E46BDF81030B0F84E10B0F84C00FFF7EA
:10399400DEFF38B133462A46B4F84A10B4F848007A
:1039A400FFF7D5FF70BD70B59DF8105002F0070EFB
:1039B4004FF0010C0CFA0EFC5FFA8CFC90F892604C
:1039C400012E1BD90024012E1AD022F0070292B234
:1039D4000668367C16FB02F292B20A44416B11442B
:1039E400DDB90A782243D2B20A7082EA0C0201F8E5
:1039F400012B013B9BB2002BF3D170BD6446E2E77F
:103A04004FF0000CE1E701241BE06400E4B24FEA4C
:103A14004C0C5FFA8CFC002BEFD00A782243D2B214
:103A24000A7082EA0C020A700EF10102013B9BB299
:103A340012F0070EE9D1428F114490F89220012A26
:103A4400E1D9012AE7D04FF0010CE4E710B504688E
:103A540090F838108AB2CB008387237CDB0043873D
:103A640090F839C01FFA8CFE4FEACC03C387614437
:103A740094F811C0614502DDACEB0E0292B2D200A3
:103A840092B2A0F84030A0F842301344A0F842307B
:103A9400A38AA0F84430E38AA0F8463010BD08B5E4
:103AA400FFF7D4FF08BD10B582B00446B0F8563015
:103AB4000093B0F85230B0F85420B0F85010FFF72B
:103AC4005CFF20B9002384F88C3002B010BD0123C0
:103AD40084F88C30B4F84820B4F850309A4201D2BB
:103AE400A4F84830B4F84A20B4F852309A4201D9C4
:103AF400A4F84A30B4F84C20B4F854309A4201D2B5
:103B0400A4F84C30B4F84E20B4F856309A42DCD9BC
:103B1400A4F84E30D9E708B50022A0F84820B0F840
:103B24004420A0F84A20B0F84020A0F84C20B0F877
:103B34004220A0F84E20FFF7B6FF08BD10B582B0B2
:103B44009DF810400094FFF791FE02B010BD08B537
:103B54000022A0F85020A0F854204FF6FF72A0F8DD
:103B64005220A0F85620036B5B68984708BD70B5D7
:103B74000446049E00258565C362416380F83820AD
:103B840080F8395080F86D5080F8915080F88D504D
:103B9400012380F8923080F89330066333689847A5
:103BA4002046FFF7D4FF2046FFF726FE84F8705026
:103BB40070BD19B10A2904D088B270474FF6FF705E
:103BC40070474FF6FF707047002380F82630704727
:103BD40010B50A46046900232021A04710BD10B582
:103BE400134604690A461721A04710BD00B583B0E7
:103BF4008DF807100DF107020121FFF7F0FF03B064
:103C04005DF804FB10B50A46C46800231521A047DB
:103C140010BD10B50A46C46800231621A04710BD84
:103C240010B51346C4680A461721A04710BD10B545
:103C3400C46800231A461821A04710BD10B5C468F3
:103C440000231A461921A04710BD70B582B006465C
:103C54000D4616E015290CD202B070BDFE29FBD129
:103C640022788DF807202921304600F04AF90235E0
:103C740007E022788DF80720F46800233046A04737
:103C840002352C4614F8011B1929E7D818290ED23D
:103C94001629DFD91729DFD123788DF807300DF1E4
:103CA400070201213046FFF7BBFF0235E9E7F5685B
:103CB40000231A463046A8472546E2E72DE9F0419D
:103CC40004460D4616461F46A1F11403052B22D8BF
:103CD400DFE803F018030C1518180021FFF778FF2C
:103CE40031462046FFF782FF012012E00021FFF752
:103CF4006FFF31462046FFF779FF012009E00121DB
:103D0400FFF766FFD4F810803B463246294620462A
:103D1400C047BDE8F0810020FBE70000F8B5064687
:103D240015461C460B39042960D8DFE801F0035F0F
:103D34000E21300022B92E49FFF787FF012025E02C
:103D44002C49FFF782FF012020E042B92A49FFF7FE
:103D54007CFF33689B7C86F82230012016E02749DB
:103D6400FFF773FF3368DB7C86F8223001200DE017
:103D7400FFF75DFF81213046FFF744FF29463046B7
:103D8400FFF747FF3046FFF759FF0120F8BDFFF763
:103D94004EFF6779FF00FBB296F822701F44FFB212
:103DA40040213046FFF72EFF390941F0100130461B
:103DB400FFF728FF07F00F013046FFF72AFFA1792C
:103DC40041F0B0013046FFF724FF2179C900226891
:103DD40001F0F8013046FFF723FF6A1E12F0FF05D9
:103DE400F3D13046FFF72AFF0120CFE70020CDE7CB
:103DF4004C4A0008544A0008044A00080C4A0008C7
:103E040038B505460C46FFF789FF90B9092C0AD04E
:103E14000A2C0FD1284600F018F807492846FFF766
:103E240014FF012006E00549284600F009F80120A6
:103E340000E0012038BD00BF144A00085C4A0008B5
:103E440001608B7C80F82230704738B5044600232B
:103E54001A4628214569A84700231A4614212046FA
:103E6400E568A84701224B21204600F04AF8236860
:103E74001A792921204600F044F800224B212046DB
:103E840000F03FF823681A792921204600F039F818
:103E940001224B21204600F034F823685A79292165
:103EA400204600F02EF838BD10B582B08DF805100C
:103EB4008DF806208DF80430049B009384686B46CB
:103EC40001220F21A04702B010BD10B58468002361
:103ED4001A460921A04710BD10B5846800231A466C
:103EE4000A21A04710BD10B50A46846800230B219F
:103EF400A04710BD10B5846800231A461021A047BE
:103F040010BD10B544690023A04710BD00207047C0
:103F140000230360074A8260C2600261426180F844
:103F2400233080F826308361FF2380F8243080F822
:103F340028307047113F0008F8B504460F4616466E
:103F44001D46FFF7E5FFA760E6602561069B6361F8
:103F54002046FFF7BAFFF8BDDFF834D00D480E490C
:103F64000E4A002302E0D458C4500433C4188C42CF
:103F7400F9D30B4A0B4C002301E013600432A24234
:103F8400FBD3FEF79DFB00F011F8FCF769FD7047C9
:103F9400008001200000002070000020844A0008F6
:103FA40070000020540C0020FEE7000070B50D4D99
:103FB4000D4C641BA4100026A64209D10B4D0C4CD9
:103FC40000F0E8F8641BA4100026A64205D170BDD9
:103FD40055F8043B98470136EEE755F8043B9847FB
:103FE4000136F2E77C4A00087C4A00087C4A000853
:103FF400804A0008024B0146186800F02BB800BF45
:104004000C00002002440346934200D1704703F899
:10401400011BF9E770B50E4E0C463168054611B91F
:1040240000F08CF830602146284600F087F8431CE5
:104034000AD0C41C24F00304A04207D0211A284645
:1040440000F07CF8013001D14FF0FF34204670BD00
:10405400440C00202DE9F041CD1C25F00305083562
:104064000C2D38BF0C25002D074601DBA94205D9CC
:104074000C233B6000263046BDE8F0812E4E00F054
:104084006DF833681C4634BB29463846FFF7C2FF37
:10409400431C04464DD134682646002E40D1236883
:1040A4003146384604EB030800F048F880453AD11D
:1040B400216803356D1A25F0030508350C2D38BF2A
:1040C4000C2529463846FFF7A5FF01302BD023687D
:1040D4002B4423600EE02268521B1ED40B2A16D9EF
:1040E4006119A342256018BF5960636808BF316035
:1040F40062514B60384604F10B0600F035F826F0A7
:104104000706231DF21AB6D09B1BA350B3E76268BF
:10411400A3420CBF32605A60ECE723466468B2E7FE
:1041240034467668B9E70C233B60384600F01CF847
:10413400A1E72560DEE700BF400C002038B5064D3E
:104144000023044608462B6000F016F8431C02D1F5
:104154002B6803B1236038BD480C0020014800F0EF
:1041640009B800BF4C0C0020014800F004B800BF9F
:104174004C0C002070477047044A05491368002B13
:1041840008BF0B461844106018467047500C0020B6
:10419400580C0020F8B500BFF8BC08BC9E46704718
:0C41A400F8B500BFF8BC08BC9E46704790
:1041B00000061016000610160000000000000000A7
:1041C00001020304060708090000000001020304BD
:1041D0005F00030305050405061614FDFC0EFC0E26
:1041E000FE026D05BA080B200600602C01210FC4E9
:1041F000253423391C2C2265C92122012209A564FA
:104200004621E14500231B8B616429114BC412D95F
:1042100061729849C412D961729849C412B14408B4
:10422000242149A65B1987846B924829520A55823A
:10423000B643E81033464AA14AA8129195E390206C
:10424000002529EEE17B35938A26415948280B4504
:104250006511A9287D2487C6C6225134240B8A649F
:10426000C1982CA6148C4EE330002624D0258C4B0C
:10427000078AE420991C2493832672581D3AABD9EF
:1042800084135270561D52A7B4DA21741B012707FC
:10429000A2642E7118281105A23327128D44239988
:1042A000DE66B2995000291005A2332194CD643303
:1042B0007D1A89466A002A10E7E045354A9A444447
:1042C0002349649434022B154A215C2987C8217242
:1042D00088F07030CA2172881C22042C0BE4602BF9
:1042E00023394446D9002D0765E034F1102E0A84A5
:1042F000202C23394424002F0FC6213CA918540C2C
:104300002A0615838A003013C9255C379C8C649279
:10431000997F9BC84493E10C00310BC7295C271C93
:1043200015F79F0E3215C9255C47134D66B6896C8B
:104330003C1D4FA762D5C3A1003317C9255C4713A5
:104340004D66B6896C2C9C83E41399DB44342B01B5
:104350003416C9255C1F174F1923B3D028368A4D50
:10436000829383743C2D3518C9255C73889CE29038
:1043700038240EB1C5E6E389CC6D229A9500361635
:10438000C9255C575A91D924E3C988B2E66D229BAE
:104390008C8433003711C9255CF1509E8AE562B9DF
:1043A0007875BC11003815C9255C379449A4D4E24E
:1043B000456434858E556A4D46033917C9255C37E7
:1043C000144D669299B7C98434194F6436C968543C
:1043D000033A0D242534233944C4924344023B0F4D
:1043E000846533233944C4924364940D003C114ADC
:1043F000215C0F111339D32174081D4287083D0B2E
:10440000C9A45CF140473C1C083E124A215C21874C
:10441000D02174081D4226729643003F12C92154D0
:104420005712DD6C13D958772431952C044027CFCF
:1044300021847B1ECBE4A090AC24112991642292AC
:104440004C449189246A2289D244249A10E5A0D848
:10445000587C08024120CE1D741F07CB8173201D9C
:104460001499834272486C1E1B47A7076178181F76
:10447000C927D402421ECC21747198CD48C3D17093
:10448000341CCD6687E0D274329D4C27D3C970723C
:104490009001431DCC2174590AB18C25E33A840E56
:1044A000A183E6A039680E89CC23E3184D5A034452
:1044B0001FCE218471980E69E3D178349FCC27F305
:1044C000C97C329FCC27E3D17834241D8600451F58
:1044D000CB216C71A00C2753C92C1499852223E1A0
:1044E00071249C0567A1C83832950C0F07461ECB76
:1044F000216C71A00C2753C92C1499852223E171DA
:10450000249C0567C139640E995B014721CD217C4C
:10451000598A914863D158328744E690C81C36873F
:104520004D0FE1D174349D91A8A50800481ECE21FD
:104530008451AC8C47E3D178341E8D4787D27834D0
:104540001E8D47E3D178349E140B490AC5254C5182
:1045500019ED7F294A13CA1D645B9EEF936C429A42
:104560009026C2916848044B1ECE2184512B4D8564
:1045700043E94C3C924FE4103BE43E218FA833E2E8
:104580009036A5D40C4C10CA2164519EEFAF9169AE
:104590006428991D0C4D2DD1219C612E9169555A8D
:1045A000641899856691596816998546A1596C12C7
:1045B0009AC526A1598C360BCE66C1D968189CD4F1
:1045C00062054E21CE218441AD5067D42035584C30
:1045D000A10543A4608C120C16A3C428313C1B8B8C
:1045E000CA21004F1DCE21846926D1C6A3F1640ED5
:1045F000B143EC103BC40EB1439647E319896C04F8
:10460000501ECC21747110CE4843CA9032A40C299C
:1046100033D2213807CD4173D01C3487D4015128BF
:104620004E22836926D1C6A3F1640EB143EC103B40
:10463000C40EB1D026A39168269951CA76A81C3A17
:104640008983EAB01100521FCD218471A00D49D396
:10465000D174341D0D6787E86C381BCE68C3D970E0
:10466000369C1827005316CA21644709AD0C25D380
:1046700008D97A355BCBD5D3245402541CCB216C9A
:104680007130ADCD6433D92C3887CC2173C81C323E
:1046900087CC2173C8BC06551ECE218451AC8C47F3
:1046A000F3D83C368FCD63F3D83C368FCD63F3D847
:1046B0003C38941B015622CF1D7461AC9067F320E7
:1046C000353C0D4FE3B3386416074DE2B0491C3852
:1046D00087CEC171781C005730D41D9C613155685C
:1046E000C4D9701AA4D1C2335A78460B53229438D5
:1046F00064129AC42193D0240EA1D161C3396C38BD
:104700000786E3D0701800581FCF218C63AA11A729
:1047100034F9480EB1C3E8503AAC0EB3434464E1F7
:1047200074481B538A06591FCD217C61A35065D361
:10473000204D3A0B53E2903A680E9BC3E6B0396CB9
:104740000E9B436E005A19CC216CF1102E4FC2946F
:10475000289D0E9943E8AC1172645C3E1C025B0A12
:1047600004A63361D2FF13015C12C8214C21968B41
:10477000E562B9582E968BE562015D0A04A23341C9
:10478000D2FF93015E0E08A14D27961269222D4299
:10479000A2005F0749604BF140600885A43E215BA1
:1047A0001461122A215C739A4D8463DA646D329B22
:1047B0008C9806621FCC1D644107CD4173D01C3418
:1047C000074D88B4D174329D4C27D3C974421B491C
:1047D0006A00630F292154571A19CB5B2333190937
:1047E00000641DCC216C4F07CD4173D01C34A48CC8
:1047F0006694E9643A994EA693E96846A410651256
:104800002A215C471C4D86C6C3413E8E0C6525009F
:10481000660EC8213C4793EC3AB44DF7B106671ECB
:10482000EB215B0F924346C6D14C2813CA4643A3E3
:104830001C74081E22D289583294DD00681ECC21D7
:104840006C4107CD4173D01C34074D6A24D27034BB
:104850001C0D47C3D170349C940A690CC5213433B4
:104860005A0792F64B016A0F471633B91D8DB83FB0
:104870005A2C2212006B1DCC216C4107CD4173D004
:104880001C34078D4A33E1283C115F27C4116D4663
:10489000A9186C0AC5213441DAFFA5006D1833212F
:1048A000A441A9D84825D27069B8345C1A2E0D9756
:1048B000862BA5066E152C216C41A99148C3D17099
:1048C000341C0D47C3D170522A6F0F2B2164579CA3
:1048D0004DA6BE4E66C31A00701CAC1D633122D2B9
:1048E00046D3C974329D4C27D3096D3421CE417310
:1048F000D01C5207711CAC21634712CD28D3C97458
:10490000329D4C27D3D18C489983E6A039680E2973
:10491000720F28214C4111512423C974C71A007306
:10492000122921544509C924C388F16A2D4A222538
:10493000007411A72144178E0A67A6E19E22A310D6
:10494000050075152C216C51220D47C3D170341C04
:104950000D47C3115B850076142A1D4C519A0C43F8
:10496000C3D828388A92E972881000771B301D7CE2
:1049700051294D66C3D06C181B9182235294442652
:10498000D1857288500878122B216461619351A4FB
:10499000F579554293512806791BAB2163519B4C05
:1049A00043D3D82C388B4EC293F81C32074565D1BF
:1049B000497C0E7A0E29215471A0D588DC8AC40363
:1049C000017B0E05A2332712EDA4281BED26147CD3
:1049D00007C2315CF1037D0F05A23321948DB60926
:1049E00045A23DA9017E0B6A2465B572888C4600FC
:1049F00000000004FFFF0000A33A00081B3B000872
:104A0000413B00081815A115C819FF001815A0157D
:104A1000C019FF001815AE15D5168015A8163F153C
:104A2000D316001540158D16141520160015A11566
:104A3000C815DA1612158116CF15D916F115DB1621
:104A400040152E15A415A619FF0000001815AF1962
:104A5000FF0000001815AE19FF0000000001140A45
:104A60006464323200127A000004289610080000B4
:044A70008000400082
:084A7400A0B7FF7F0100000064
:044A7C00B901000874
:044A80009501000894
:104A840001000000100000000024F40010000020C9
:104A94000000000000000000000000000000000012
:104AA4000000000000000000000000000000000002
:104AB40000000000000000000000000000000000F2
:104AC40000000000000000000000000000000000E2
:104AD40000000000000000000000000000000000D2
:104AE40000000000000000000000000000000000C2
:0400000508003F5D53
:00000001FF
